{
  "abi": [
    {
      "anonymous": false,
      "inputs": [
        {
          "indexed": false,
          "internalType": "uint256",
          "name": "oldBips",
          "type": "uint256"
        },
        {
          "indexed": false,
          "internalType": "uint256",
          "name": "newBips",
          "type": "uint256"
        }
      ],
      "name": "CallerFeeChanged",
      "type": "event"
    },
    {
      "anonymous": false,
      "inputs": [
        {
          "indexed": true,
          "internalType": "uint256",
          "name": "planId",
          "type": "uint256"
        },
        {
          "indexed": true,
          "internalType": "uint256",
          "name": "intervalNumber",
          "type": "uint256"
        }
      ],
      "name": "IntervalEnded",
      "type": "event"
    },
    {
      "anonymous": false,
      "inputs": [
        {
          "indexed": true,
          "internalType": "uint256",
          "name": "callableOn",
          "type": "uint256"
        },
        {
          "indexed": true,
          "internalType": "uint256",
          "name": "amount",
          "type": "uint256"
        },
        {
          "indexed": true,
          "internalType": "address",
          "name": "token",
          "type": "address"
        },
        {
          "indexed": false,
          "internalType": "uint256",
          "name": "planId",
          "type": "uint256"
        },
        {
          "indexed": false,
          "internalType": "uint256",
          "name": "intervalNumber",
          "type": "uint256"
        }
      ],
      "name": "IntervalStarted",
      "type": "event"
    },
    {
      "anonymous": false,
      "inputs": [
        {
          "indexed": true,
          "internalType": "address",
          "name": "previousOwner",
          "type": "address"
        },
        {
          "indexed": true,
          "internalType": "address",
          "name": "newOwner",
          "type": "address"
        }
      ],
      "name": "OwnershipTransferred",
      "type": "event"
    },
    {
      "anonymous": false,
      "inputs": [
        {
          "indexed": true,
          "internalType": "uint256",
          "name": "planId",
          "type": "uint256"
        },
        {
          "indexed": true,
          "internalType": "address",
          "name": "sender",
          "type": "address"
        },
        {
          "indexed": false,
          "internalType": "uint256",
          "name": "totalAmount",
          "type": "uint256"
        }
      ],
      "name": "PaymentPlanEnded",
      "type": "event"
    },
    {
      "anonymous": false,
      "inputs": [
        {
          "indexed": true,
          "internalType": "address",
          "name": "sender",
          "type": "address"
        },
        {
          "indexed": true,
          "internalType": "address",
          "name": "recipient",
          "type": "address"
        },
        {
          "indexed": false,
          "internalType": "address",
          "name": "token",
          "type": "address"
        },
        {
          "indexed": false,
          "internalType": "uint256",
          "name": "totalAmount",
          "type": "uint256"
        },
        {
          "indexed": false,
          "internalType": "uint256",
          "name": "interval",
          "type": "uint256"
        }
      ],
      "name": "PaymentPlanStarted",
      "type": "event"
    },
    {
      "inputs": [],
      "name": "BIPS_DENOMINATOR",
      "outputs": [
        {
          "internalType": "uint256",
          "name": "",
          "type": "uint256"
        }
      ],
      "stateMutability": "view",
      "type": "function"
    },
    {
      "inputs": [],
      "name": "adminFeeBips",
      "outputs": [
        {
          "internalType": "uint256",
          "name": "",
          "type": "uint256"
        }
      ],
      "stateMutability": "view",
      "type": "function"
    },
    {
      "inputs": [],
      "name": "callerFeeBips",
      "outputs": [
        {
          "internalType": "uint256",
          "name": "",
          "type": "uint256"
        }
      ],
      "stateMutability": "view",
      "type": "function"
    },
    {
      "inputs": [
        {
          "internalType": "uint256",
          "name": "id",
          "type": "uint256"
        }
      ],
      "name": "cancelPaymentPlan",
      "outputs": [],
      "stateMutability": "nonpayable",
      "type": "function"
    },
    {
      "inputs": [
        {
          "internalType": "address",
          "name": "target",
          "type": "address"
        },
        {
          "internalType": "address",
          "name": "token",
          "type": "address"
        },
        {
          "internalType": "uint256",
          "name": "amountPerInterval",
          "type": "uint256"
        },
        {
          "internalType": "uint256",
          "name": "totalIntervals",
          "type": "uint256"
        },
        {
          "internalType": "uint256",
          "name": "intervalLength",
          "type": "uint256"
        }
      ],
      "name": "createPaymentPlan",
      "outputs": [],
      "stateMutability": "nonpayable",
      "type": "function"
    },
    {
      "inputs": [
        {
          "internalType": "uint256",
          "name": "id",
          "type": "uint256"
        }
      ],
      "name": "getPaymentDetails",
      "outputs": [
        {
          "components": [
            {
              "internalType": "uint256",
              "name": "totalAmount",
              "type": "uint256"
            },
            {
              "internalType": "uint256",
              "name": "amountSent",
              "type": "uint256"
            },
            {
              "internalType": "uint256",
              "name": "amountPerInterval",
              "type": "uint256"
            },
            {
              "internalType": "uint256",
              "name": "totalIntervals",
              "type": "uint256"
            },
            {
              "internalType": "uint256",
              "name": "intervalsProcessed",
              "type": "uint256"
            },
            {
              "internalType": "uint256",
              "name": "nextTransferOn",
              "type": "uint256"
            },
            {
              "internalType": "uint256",
              "name": "interval",
              "type": "uint256"
            },
            {
              "internalType": "address",
              "name": "recipient",
              "type": "address"
            },
            {
              "internalType": "address",
              "name": "sender",
              "type": "address"
            },
            {
              "internalType": "address",
              "name": "token",
              "type": "address"
            },
            {
              "internalType": "bool",
              "name": "alive",
              "type": "bool"
            }
          ],
          "internalType": "struct PaymentStructures.PaymentSchedule",
          "name": "",
          "type": "tuple"
        }
      ],
      "stateMutability": "view",
      "type": "function"
    },
    {
      "inputs": [],
      "name": "owner",
      "outputs": [
        {
          "internalType": "address",
          "name": "",
          "type": "address"
        }
      ],
      "stateMutability": "view",
      "type": "function"
    },
    {
      "inputs": [],
      "name": "renounceOwnership",
      "outputs": [],
      "stateMutability": "nonpayable",
      "type": "function"
    },
    {
      "inputs": [
        {
          "internalType": "uint256",
          "name": "id",
          "type": "uint256"
        }
      ],
      "name": "runInterval",
      "outputs": [],
      "stateMutability": "nonpayable",
      "type": "function"
    },
    {
      "inputs": [
        {
          "internalType": "uint256[]",
          "name": "ids",
          "type": "uint256[]"
        }
      ],
      "name": "runIntervals",
      "outputs": [],
      "stateMutability": "nonpayable",
      "type": "function"
    },
    {
      "inputs": [
        {
          "internalType": "uint256",
          "name": "bips",
          "type": "uint256"
        }
      ],
      "name": "setCallerFee",
      "outputs": [],
      "stateMutability": "nonpayable",
      "type": "function"
    },
    {
      "inputs": [
        {
          "internalType": "address",
          "name": "newOwner",
          "type": "address"
        }
      ],
      "name": "transferOwnership",
      "outputs": [],
      "stateMutability": "nonpayable",
      "type": "function"
    }
  ],
  "bytecode": {
    "object": "0x6080604052600260035534801561001557600080fd5b5061001f33610024565b610074565b600080546001600160a01b038381166001600160a01b0319831681178455604051919092169283917f8be0079c531659141344cd1fd0a4f28419497f9722a3daafe3b4186f6b6457e09190a35050565b611103806100836000396000f3fe608060405234801561001057600080fd5b50600436106100b45760003560e01c80638da5cb5b116100715780638da5cb5b1461012157806390513e1a1461013c5780639e70df211461014f578063e81cedb91461016f578063f2fde38b14610182578063f45d75041461019557600080fd5b80630cf9e555146100b957806313978a7d146100ce5780633ed6c090146100ea5780634e581547146100f357806353aa7dcd14610106578063715018a614610119575b600080fd5b6100cc6100c7366004610dc6565b61019e565b005b6100d760035481565b6040519081526020015b60405180910390f35b6100d760045481565b6100cc610101366004610df5565b6101ad565b6100cc610114366004610dc6565b6101f4565b6100cc610289565b6000546040516001600160a01b0390911681526020016100e1565b6100cc61014a366004610dc6565b61029d565b61016261015d366004610dc6565b610301565b6040516100e19190610eb3565b6100cc61017d366004610f6e565b610420565b6100cc610190366004610fbb565b610688565b6100d761271081565b336101a982826106fe565b5050565b3360005b82518110156101ef576101dd8382815181106101cf576101cf610fdd565b6020026020010151836106fe565b806101e781611009565b9150506101b1565b505050565b6101fc610af3565b60288111156102445760405162461bcd60e51b815260206004820152600f60248201526e546f6f2068696768206f662066656560881b60448201526064015b60405180910390fd5b600380549082905560408051828152602081018490527fd0400c9993b0a5504862e4c747a3c68e61ff70ffd6a949ed12787acc7d395264910160405180910390a15050565b610291610af3565b61029b6000610b4d565b565b6000818152600260205260409020600801546001600160a01b031633146102f55760405162461bcd60e51b815260206004820152600c60248201526b155b985d5d1a1bdc9a5e995960a21b604482015260640161023b565b6102fe81610b9d565b50565b61037b6040518061016001604052806000815260200160008152602001600081526020016000815260200160008152602001600081526020016000815260200160006001600160a01b0316815260200160006001600160a01b0316815260200160006001600160a01b031681526020016000151581525090565b506000908152600260208181526040928390208351610160810185528154815260018201549281019290925291820154928101929092526003810154606083015260048101546080830152600581015460a0830152600681015460c083015260078101546001600160a01b0390811660e084015260088201548116610100840152600990910154908116610120830152600160a01b900460ff16151561014082015290565b600061042c8385611022565b604051636eb1769f60e11b815233600482015230602482015290915081906001600160a01b0387169063dd62ed3e90604401602060405180830381865afa15801561047b573d6000803e3d6000fd5b505050506040513d601f19601f8201168201806040525081019061049f9190611041565b10156104df5760405162461bcd60e51b815260206004820152600f60248201526e125b9cdd599988105c1c1c9bdd985b608a1b604482015260640161023b565b60006001600081546104f090611009565b919050819055905060405180610160016040528086866105109190611022565b8152602001600081526020018681526020018581526020016000815260200160008152602001848152602001886001600160a01b03168152602001336001600160a01b03168152602001876001600160a01b031681526020016001151581525060026000838152602001908152602001600020600082015181600001556020820151816001015560408201518160020155606082015181600301556080820151816004015560a0820151816005015560c0820151816006015560e08201518160070160006101000a8154816001600160a01b0302191690836001600160a01b031602179055506101008201518160080160006101000a8154816001600160a01b0302191690836001600160a01b031602179055506101208201518160090160006101000a8154816001600160a01b0302191690836001600160a01b031602179055506101408201518160090160146101000a81548160ff02191690831515021790555090505061067f81610c8f565b50505050505050565b610690610af3565b6001600160a01b0381166106f55760405162461bcd60e51b815260206004820152602660248201527f4f776e61626c653a206e6577206f776e657220697320746865207a65726f206160448201526564647265737360d01b606482015260840161023b565b6102fe81610b4d565b600082815260026020818152604080842081516101608101835281548152600180830154948201949094529381015491840182905260038101546060850152600481015460808501819052600582015460a0860152600682015460c086015260078201546001600160a01b0390811660e087018190526008840154821661010088018190526009909401549182166101208801819052600160a01b90920460ff16151561014088015295969095939492939290916107bb9161105a565b9050428660a0015111156107fd5760405162461bcd60e51b8152602060048201526009602482015268546f6f206561726c7960b81b604482015260640161023b565b8561014001516108405760405162461bcd60e51b815260206004820152600e60248201526d141b185b881a185cc8195b99195960921b604482015260640161023b565b6040516370a0823160e01b81526001600160a01b0384811660048301528591908716906370a0823190602401602060405180830381865afa158015610889573d6000803e3d6000fd5b505050506040513d601f19601f820116820180604052508101906108ad9190611041565b1015801561092c5750604051636eb1769f60e11b81526001600160a01b03848116600483015230602483015285919087169063dd62ed3e90604401602060405180830381865afa158015610905573d6000803e3d6000fd5b505050506040513d601f19601f820116820180604052508101906109299190611041565b10155b15610ae9576000612710600354866109449190611022565b61094e9190611072565b90506001600160a01b0386166323b872dd858561096b858a611094565b6040516001600160e01b031960e086901b1681526001600160a01b03938416600482015292909116602483015260448201526064016020604051808303816000875af11580156109bf573d6000803e3d6000fd5b505050506040513d601f19601f820116820180604052508101906109e391906110ab565b506040516323b872dd60e01b81526001600160a01b0385811660048301528981166024830152604482018390528716906323b872dd906064016020604051808303816000875af1158015610a3b573d6000803e3d6000fd5b505050506040513d601f19601f82011682018060405250810190610a5f91906110ab565b5060008981526002602052604081206001018054879290610a8190849061105a565b90915550506000898152600260205260408082206004018490555183918b917f1f2ac7df73c1350b53585a6ed7a8b0a9f10423b8c8f0a40674de05347694125b9190a38660600151821015610ade57610ad989610c8f565b610ae7565b610ae789610b9d565b505b5050505050505050565b6000546001600160a01b0316331461029b5760405162461bcd60e51b815260206004820181905260248201527f4f776e61626c653a2063616c6c6572206973206e6f7420746865206f776e6572604482015260640161023b565b600080546001600160a01b038381166001600160a01b0319831681178455604051919092169283917f8be0079c531659141344cd1fd0a4f28419497f9722a3daafe3b4186f6b6457e09190a35050565b600081815260026020818152604080842081516101608101835281548152600182015481850190815282860154828501526003830154606083015260048301546080830152600583015460a0830152600683015460c083015260078301546001600160a01b0390811660e084015260088401548116610100840190815260099094018054808316610120860152600160a01b810460ff161515610140860152988a905296865260ff60a01b1990971690955590519351915191825293929092169184917f707b092561fa8dae9c532369e8f1c0906d879b222987312c06254c15560b83e5910160405180910390a35050565b60008181526002602081815260408084208151610160810183528154815260018201548185015281850154928101929092526003810154606083015260048101546080830152600581015460a0830152600681015460c0830181905260078201546001600160a01b0390811660e085015260088301548116610100850152600990920154918216610120840152600160a01b90910460ff161515610140830152858552929091529190610d4390429061105a565b9050600082608001516001610d58919061105a565b6000858152600260209081526040918290206005018590556101208601518683015183518981529283018590529394506001600160a01b0316929185917f501444deee6d76332c7a8a5bd3c5a223d35ff8fe19528b86088ff199396242c5910160405180910390a450505050565b600060208284031215610dd857600080fd5b5035919050565b634e487b7160e01b600052604160045260246000fd5b60006020808385031215610e0857600080fd5b823567ffffffffffffffff80821115610e2057600080fd5b818501915085601f830112610e3457600080fd5b813581811115610e4657610e46610ddf565b8060051b604051601f19603f83011681018181108582111715610e6b57610e6b610ddf565b604052918252848201925083810185019188831115610e8957600080fd5b938501935b82851015610ea757843584529385019392850192610e8e565b98975050505050505050565b600061016082019050825182526020830151602083015260408301516040830152606083015160608301526080830151608083015260a083015160a083015260c083015160c083015260e0830151610f1660e08401826001600160a01b03169052565b50610100838101516001600160a01b03908116918401919091526101208085015190911690830152610140928301511515929091019190915290565b80356001600160a01b0381168114610f6957600080fd5b919050565b600080600080600060a08688031215610f8657600080fd5b610f8f86610f52565b9450610f9d60208701610f52565b94979496505050506040830135926060810135926080909101359150565b600060208284031215610fcd57600080fd5b610fd682610f52565b9392505050565b634e487b7160e01b600052603260045260246000fd5b634e487b7160e01b600052601160045260246000fd5b60006001820161101b5761101b610ff3565b5060010190565b600081600019048311821515161561103c5761103c610ff3565b500290565b60006020828403121561105357600080fd5b5051919050565b6000821982111561106d5761106d610ff3565b500190565b60008261108f57634e487b7160e01b600052601260045260246000fd5b500490565b6000828210156110a6576110a6610ff3565b500390565b6000602082840312156110bd57600080fd5b81518015158114610fd657600080fdfea2646970667358221220a96fa1d484d60c8f2ea748d1d95dae4bcd1c689c6a3c2770b2964f97f4156edf64736f6c634300080e0033",
    "linkReferences": {}
  },
  "methodIdentifiers": {
    "BIPS_DENOMINATOR()": "f45d7504",
    "adminFeeBips()": "3ed6c090",
    "callerFeeBips()": "13978a7d",
    "cancelPaymentPlan(uint256)": "90513e1a",
    "createPaymentPlan(address,address,uint256,uint256,uint256)": "e81cedb9",
    "getPaymentDetails(uint256)": "9e70df21",
    "owner()": "8da5cb5b",
    "renounceOwnership()": "715018a6",
    "runInterval(uint256)": "0cf9e555",
    "runIntervals(uint256[])": "4e581547",
    "setCallerFee(uint256)": "53aa7dcd",
    "transferOwnership(address)": "f2fde38b"
  },
  "id": 16
}